:03000000020008F3
:090061007508007509F4020003A2
:0300030002006A8E
:20006A001200F09006027401F0E4A3F090C20075F001E412013574CEC0E0743CC0E07480F6
:20008A00C0E012038C1581158115817F008F057E0074E0C39DFD742E9EFE1DBDFF011EEDEE
:2000AA0024EEF582EE340DF583E493FC7B00C007C004C003C005C00674DBC0E0743CC0E000
:2000CA007480C0E012038CE58124F9F581D0070FBF080040B890006412020D850882850991
:2000EA008312000680FE75A15575A1AA53B3E043B30675B2D875A1FF90000702020DAF83E2
:20010A00E582900600F0EFA3F010990280FB900600E0FEA3E0FF8E998E828F832210980235
:20012A0080FBAE997F008E828F8322AF82AE83ADF0FC900604EFF0EEA3F0EDA3F0ECA3F03C
:20014A00900602E0F5F0A3E045F0600C43C60143C40843C50C43CE10C29FD29EC29DD29C28
:20016A00438780900604E0FCA3E0FDA3E0FEA3E0FF90060CECF0EDA3F0EEA3F0EFA3F090A1
:20018A008D8075F05BE412024AAC82AD830CBC00010DEDC313CC13CC740F55894420F58961
:2001AA0043C9A0C3E49CFC8C8DD28ED29922AF83E582900608F0EFA3F0900608E0FEA3E09C
:2001CA00FFEE4F603505A105A105A105A105A105A105A105A105A105A105A105A105A105D1
:2001EA00A105A105A105A105A105A11EBEFF011F900608EEF0EFA3F080C7900608EEF0EF6B
:20020A00A3F022AF83E58290060AF0EFA3F090060AE0FEA3E0FFEE4F601D9003E8C007C0B8
:20022A00061201B8D006D0071EBEFF011F90060AEEF0EFA3F080DF90060AEEF0EFA3F022BA
:200DEE0078DB723EE510361C0A6D14A3C2686AD1DDC898999355C5457E3C11818940D91E34
:200E0E00BC7B4CDF486187F9FCAE3B4D4008FB9A5CF1F77EE9F01905C338974E221CE9FF6B
:200E2E00E6306D77A07EAB211E661AD9651EC667D91A84BE432E88259667A3499D9B389A53
:200E4E00DE524EF3F5A31E07076DA60EB47D2C804C657D61E870432DFEE2D62625EEE76EB6
:200E6E00F6FE4C1A269077256D35690267E3BCE5126F9887F25686FF5021A7561481ED85DE
:200E8E00CEA39C8A4D9CDB4A6BA5B1AA9E262F06C2A5E26A647DBF703BE64DBB7FC459D5DE
:200EAE0078EE7F63BAE4450C887743EAC8B33D612BD5E6F0F5690AA1599B45484F06278D3F
:200ECE00EE8A6C3B6769D82B87836714D0F29922AD9EA77CC8700A3752BACF81FE0771A0B7
:200EEE000D61373C9C2E50D66EC7A1F23BC7842A6E4EF4C112B933931C4FECD079B10BEE4F
:200F0E00833EE58F9701630C71E1C5F464515F16E6CE645C36EBAD4D2A0F0B7838FF770059
:200F2E002091725F57FB74B23F2EEE493FD999E167BF94AF30851CF9C78641EF7874FD0AD0
:200F4E006CA9B38A632A8156A9E1670973A176CAF20ACD61658FB0CBB8171FF902EDABB2B3
:200F6E00AC2313D26AF9429671C27E659777408E778112BB9FEC892A014B395D14049AE506
:200F8E006F445A119B37615A2374F02269D87A789E7A72D52DE9930E0F76D0A8FA219048B6
:200FAE00E1BF93193068EEA856A2F3A0211FC77D2F74F104D60379832EA97108D3A0F93140
:200FCE0037232CAAC23706518670896CC2C9442865960E87F45237EA461E922C4F8229810D
:200FEE0019B2E650925A1CE1E755B500CD14EFEDBDDA7B6177811DD7A8686ADEF4C737D5CD
:20100E00CC836FB85197C414E0FE4FEC7FA08FE8A197ABB304DB2133B52BABBD34D2248121
:20102E00C58A8FF3EC822AB09485EC97AC944ABC1ACE3CA182599BA5CED80252E8A71FC45B
:20104E003E425490968B97BF62DB4FCAC8307AF1FBC4623AC2F725907745A2E93E8061BC03
:20106E009A70954E0FAE6A7E50CF250EEE21132645361B10B8BFA014E0662E9DD574924C2D
:20108E00CC7E45466B15BB6307ACDF77056516BC5D93F57323BAF35891540038F3CE1A57BB
:2010AE002058DDE44A2ACA7AD5F5D609934BD6ED6ED3B7C472524C83046753B34902125F6B
:2010CE005D11749ADF4E32B084C72D385DC655EED1F73865094E5EBFD307561DEC7D454845
:2010EE00E45BC21EFECD2DBBBE120C239CA697A0281352097D96522F436871E3C040B63584
:20110E00D45B90E9BB17185E1F91AA9DAB58EEDA184B3B5B394E718ED7B3F88FD51BFBC2D2
:20112E00D102A0BDFD244D44B786B83CA87D5638C0D38F5457D5B3C865CA7DF942ABD7E174
:20114E0075A18F4AB7F328EB66CA833141EA1FC7B2933AA46E05E66E4F34C9D83EE126C1CC
:20116E00A7CBA13FE2B2ED7630958861EEFC1854ED4B40319C45DD72A2E61A15918DF4432F
:20118E00A5384A15F33CD70E493E216CB6169DE96D1D312A50E50D5FA732BD5617EAE4F143
:2011AE001375CD433FBC1C5E0D5BDFAE963379479E54FD1F72F83A258E83FE2B3F2EAEAAC0
:2011CE00DF54664CAEEA4835D32E3007841762E2B6E10ED1C3A206FCF72C063AA95A6D99A7
:2011EE000908B83A8090EA6AD11CC7B4E253A693257ECC59DDC91A7BA2B0E01EFEC3C26569
:20120E001AECBD1B8AC8070AF194F0FF271F6B7BF713CE8C0FF7D1D137EF8A743306A7BD12
:20122E00C69A01D29C0B9294BA533BBAA271B46462ED8723BB34EF5780018259CAF95A9D2F
:20124E0030A67D455AF826BAB8AFB60C032140C118DCA9B6138D5F9468000B4D6861BE44F7
:20126E008382282608B0805282070D8F7F3C334B2A3F23566B29FA500F7933F0215E66D302
:20128E00E4F077AA774B147DE254DA3C1FC53F7289DF9B9413E0CBD6A4449831C9A6678CD9
:2012AE00BF56E39BA13B107B9F0893E46B360759494E7C14FFCFF490C3A761F47BFA179AA9
:2012CE006A062877D5DAF0CC2F3A8FFC1EF2A0AC959A677A14B3D031AD79FEC618DF2691C6
:2012EE00D459061DCF22B6F674C5AB4E023F3A1A5F536405297BC5BBFADE0AE047045EEA98
:20130E00AD11B78BCAE019E7A58B4636E80668C5D515E8863CF22D979C9C68E96374D17261
:20132E000EC9C7CA8F7A1F0D847AF3692C13B7AED86145F0F0D54AAD4F3E76FF5636E9065D
:20134E009C4C64C85D02F779D7BEA1C76E6C1A56CC5647B78339D6DE79203E60531AD05DF4
:20136E004DBA3D4890861D78BE727E90C5AF177226A1952BB4AD2E3EE02694611AE67553D6
:20138E00638E672C2E828BF63E5C1881AAAEDEC9AFF68AC1002279EC70B5AB99C46E81FBCA
:2013AE00BD903366C336152583091E1B8CF699840BB899FBAEDDA2D6EF6D0E17D6D20C0E05
:2013CE00DBE8E9AAC7C58B64A9F632E8612A8F173C0165623D1849A08120A1E9ABBACC9214
:2013EE0077FB0FA34F36B567E9C7FD7C1836CC692D94B738599C4335094C34F26FA0520471
:20140E008A9298A9E533E84A23F5D9A089AD183A8DB1534388514849A42A61727052F0EE7F
:20142E002A525A1EA0A2939128F12FE6C9782EFCCBF4E6FB5205B15B462424455D39687E59
:20144E00B42DE300B2221D9A114184D644C3A237D8415C3C295C3D85A7BBF83CE006619638
:20146E00EF7A27F8AE6E41054019DB645D3853CA34D93E2479677F22000D78F0423CF667EA
:20148E004DFA95703118B08D4C3C4941DA7D1FB4EE70B7D3FB0173AD644FF871E652699FD0
:2014AE00D764D8CD8E6BEB4463CAF08F3372AA0C786B27F21827A29AE966C2F3399990D65C
:2014CE0026149705820C6D0C7BD69CF14E9ED5EFF7C7BB4D4782E7F50C1414D03B5E6255D4
:2014EE0080579A08D3F5B888ECC411EBA96978D55DD84188CBD4554DC356A1DFE5CA1B862A
:20150E00DA795D7F744E433A633A5C65C498836FB70A49D4031CB12B5FE1E4FE7F7BF5C7F2
:20152E00596B1C8F8157AA5B584D5D7C1CD4C256A6DD42E9CB549120A3E1DB55C361D4326F
:20154E00A1DEBC2182CE1D2849B82C1DFAB676DC93E66F7B49229A9E4A0820D7A236911672
:20156E00D3E6C7807771226ED0D731DCF268173341B8232B02F4A2B9F9CF74FEE69952F7F3
:20158E00E3AE90E06EBF5979E3D62814F08ABDB412B8E32F73587D0C7B47645D5E6D8371EB
:2015AE000CCD81A7FA84294430C35C29115F05EE38A21195558718C7A146ECC301CB921B0C
:2015CE00782A2BD49176929469BA9AA7F911B5FAAACBF4879C8F5BD1C22F196A028195043B
:2015EE006B19B58D13F8B43B21174246367CCEE493A9A206D4E19E7E1B430A6DE7FE5BDC53
:20160E00883F6DB6853EC8A5DD4C25A3EEC2C75A858FBECBA14A7CAC48C7F16B77139DF9A5
:20162E00AB3F7922B7316B320A64ADA2A3EC35D27B203CDB2373237363B3C9BC21872DEB06
:20164E00352E575A84D6C2DB83D5582885FB111B7DE1C4A34B230B844BE16168FEC570A75C
:20166E0083FD971DD36A93F938DAB9AA4F7EF365A495D95B16D9B3CE94B84276EAF6740987
:20168E00D24907BE6233A96060D7DD2D6CCFEA2C82BFB97798A7F0A0C8097B79AA3E4E24CD
:2016AE007DC164E13574E69969920CFE3180C7C29FDF85C258CB152818F28E0188D6E45BD7
:2016CE005EE0A4E692D151EC8953EC53F15E9CE028927826CF5BFEBD640580E7E2209754B4
:2016EE006D86BE721F81FC3F66EE019EDF928680F0564F55714EB23E7ED782D0507ECC1189
:20170E008674EAD54194F47B6D878BA0DFF403FFF407669711E4C205B651A8F76658005D55
:20172E0055D2CAAD89C3CB9C2E7E3EF755AFC38D1F12D489D69E8A8CD7BBC192A3285DE60A
:20174E008B9E18F80EFC0DB145EBFA27D2C09B692E7C8BD92F9E1B6FA44376738D82C0C5CA
:20176E004FF6117259D99CB5FED3269F4C6D2723D3ECD86DA929154B083D464A0CE2C1922B
:20178E00E5E9748F75455FF0005DBC3EB0E6F2E71E52505861757B865FC809BE41FC37A8A2
:2017AE00969A39C2AA53A47173F67F8356052586D91B7C07482404A68DBA7D6A5112B36735
:2017CE0001025FBDA0BF5C87453A8C47BA12B894539594037BB540B2CB6D49C5C008EBEFA7
:2017EE0003A3C72337E62DB472C6FDE3E5B8CC679605F774E9F6C630FDD93C044DEC834A6E
:20180E008B47EFCD18747874D5F782BB2EF710DD11A0472ABBF808A9FF9267C386D29C560E
:20182E008EF4E0F46F23D507887BC3FBB34128C9B3781C1D673E054533BBB86A07F031FBAA
:20184E00DDBA2528C2503BA9E15CE098D7D5A0A1DF826A66344039BEE2398A19E2783248D0
:20186E0083DB6017798CC0EA0033DEEA2AD5802B5551F6CA50041234FC3714F83093C85314
:20188E00CE69147DA044D19FA4BCC1BD21F7932790ACC832C6575BC65344567EF03AC5B2EE
:2018AE00AED12E719B270E889A536D82161C55C612D822C1A0ECDB2DE1B29DC32610625C33
:2018CE00E0CF5BD1496DF80F7B622546923112C62B48E47AC29E20EFABBE9DF9D364AC4815
:2018EE008817A2B4AB97B366E5B86661A43C3D4568C57ED1FE178C04A8247BFBDD2DA2486D
:20190E00FA21BD04839B17437EE6591B6A124B1D74EE2D404D292F1EBE94B938463120BA83
:20192E008B0477F9E15CE85DBBF7D61EAE3B2E7BD2817C853DC7EEC7D8F18BBE2538F85D0F
:20194E00EA955BEB37DA32DB8C1C129A8CD1234A9C7469E44FE3734A894069A126A52578F1
:20196E005E7424843DC8B81D310BE217A06CF894C32F40C3D04225898C47E34DF03C4C0404
:20198E00FB358DC263F849101822824E8FD8A3E6CD34245A8BF976B3C4B0FFAC2A161C6500
:2019AE00C9E8E1F8F1E8EB9770FFD78CB354DDC11543748F29A9B6992D6E42889B54C468C1
:2019CE006FB3F46AC515788C1237979BC597F4AA4B6FC2D7EDEC04A83094B7DE9B2B74B209
:2019EE005C0CB2E61D93B39AFCC9A8519AF092B6D97AE705164E30E0C8F2640CE882D8101D
:201A0E00C280DE69C95FBFB22D96DAEA3769DEE8DADF324CFE699A21B8AF34B2C9DB0E242D
:201A2E00AC83C0BAF4B42458A62BDC58EECECE8EFE0FA2CA3DC82E094F7EF297585D4BF8AB
:201A4E0073B3D647BC8671FF0A3A20B066FE2F65512C2F1D15DABDAAB5F4270066218AEC8B
:201A6E0096DD14AE538C92174148D71930A872EA4AD789FD956E58967932476165499F4B6B
:201A8E00607D667D0554C50FF8844082876584967CF63799DCCA5CAC58C6AEBA5255895D04
:201AAE0044B7BCA7C37ABE262DC6F0B0C72EF6599FD6983377A615351657D0780063924130
:201ACE0033ED322F0CFFF357B53F8FA9B063E893FF2089487882A9FA7FB819E26A8F072782
:201AEE003A71EF7EA66D8B72C3CBC0EC7969E3566A57A9B833FD4CF226FB98A491918D2B94
:201B0E00ED848D199056BEFB9564EDE40DF1A9130D96488C4053186E16AD116258CBE7109D
:201B2E000225C0553B0BD41A91DD8D6D55AEA5796FFB108A6C91CA512B12A8880EE1DACB81
:201B4E008C3679B3D99B8AA2C046E7D2A4F68CE4D52D8A086AB312047982B2FE227F19767E
:201B6E003280CC76386BA857013C73592DD86983DF9D3DF5D3B8FF7E962506BF8202A96FF5
:201B8E00AEFA04D426F50B6A7711778F3AAEF5AFF5C224C655E807EA37566B977579D28B64
:201BAE00BA61DF7D245BAEC74507390383D6F080A9ADC9DCFE4E20A059A293834B0D79D2A0
:201BCE006CE3B54E956B8B770D5420020A727243B9E5A1E73AA535DB2F0B26108119E9B037
:201BEE00D1231BEAEB0701789E77D08E47FFFC977E686B2AE5734B076090F199286F58FA9F
:201C0E008CE85A6C13B1CA4276076C57EFB86749B744E323708A599FC455FF5E85DB40F814
:201C2E000FC936835556D174A8913C01A6AB4580ED3ED00C3AEB2AC6EF7D5750FF3C815846
:201C4E008B064333B19491B37D34B62335D2D7ED03CC7B19FDDAB6F319333CFCF2043013F1
:201C6E000E8F454C4943D1CA904A1782F2114DA0986BF5227E886166ABCB9AF59B47B2F32B
:201C8E00430704B539E7CD59D80E2C5E4C1F02BC9414EE20A382E41B398507C0725FBE4A1C
:201CAE002B16CB63D4D7FA2C629A46C98ADEBEDBE1F22A58F020FB0201D3945559415617A4
:201CCE00366A0CC535D275E05D0ACA528258A951B5A8B2D1B6DBC4A5044301343B9CC22DB6
:201CEE003D7668220796548E03D683F3BB74777D84D4FF79806769CEB6D02FD9E271629BDC
:201D0E00935E624D667D837D13906C5C191DBC9E92C68D7E4E445E74C0001235B142C3D2E1
:201D2E004C5E04E6CF9D8B4EDE1B3B6BC01BFAB1382B3A006E976CBAB2D9AA7E904E8D872A
:201D4E00E26FC985CC28612F146ADE22070473C6B0D96DB0F3E6DAFC124FE66BC73727DB89
:201D6E002C747D0BDA41AF189CC80A12EF742FC34A85811601298FE876C4368128D19E9453
:201D8E0084FFD97B38F17A261E59EDF84787B048007993444241D88C2F575A460925CF3DDC
:201DAE00C4D557557165A214F4928DED4FE96FD9AC229753E67B2ADE9183568A2512799A65
:201DCE00AF9BF7B38786DDA846F46C4487F3CEC166E0B89274B7856C04732B3A41FA96BE65
:201DEE000CC20E87CF517354AE5730C17088B65DB7B80E011AC5FE326E4CA0B863759BA0D8
:201E0E00A985A06A18B68B6E9C11844762B497229440CBB257152A22CAED4E3920CCAB444C
:201E2E008074C196D8C981A31A89E2521B2E8A0CAE6BD6120F8733FFA030FFB32E12E866F5
:201E4E00A7C4578A1ABFA141D911E6E9C320501F02F2EAA376099379040C7F437DD6713C84
:201E6E006D74BA071BD35ADE6ADD0810A67F606FF505A1AE7A2BF89A9A0EAA86B67D009618
:201E8E000946045AB4B7EAF24A5CADA866523E05A2D1F9B9B8E9CF6E037A769D62D90280FA
:201EAE006CB88881CF8534FFCA1FADF371713DC54CA4647A5D9BA1F930BF0BC65AE213463E
:201ECE00397A1461FB3BCB74904C02D3D0C6445DCA1DDBDA97420A68741F37A7122CDBBD41
:201EEE00FCB4CFB6BE1C9CED25C299208D2979714F7A94B4BEF651E2DA702592E5A0B2AD1F
:201F0E00B1A6B6B189DDAA362ABEE84CE39D7A080B299E2C44C814326FDE2A9745B2262EE8
:201F2E00024AB1D52D8D8E6096F36B42A3FA66E97DA1E65AFB0D3571FFE94F7D6CA4F7C66A
:201F4E00F284C1F9E82685688C0882C5791B365A40679E9FC2ACD9C5A22BF618F8D5C2D01F
:201F6E009AB2324D2E789C5D6BDE79E4EDA9DC165C78A3E391DC021401BE85EBC866578E9C
:201F8E00C2EFF60C7346D016A7C421B2B8CD5CC6B010873130F1668A34A96A636070E9BD53
:201FAE004936954BE9F7FBEEF91AE01736A01F6126639EAC409B85B738E419020BCA759B85
:201FCE001868922E4668EBAB516A7330AFFDDD93B65249F0A31372EF933D6EB7BCE1AA76EB
:201FEE0095189A3BF1127AA540E4E21BCBA00309DEA45CDD6C116EE7F7E3BEDC84E4AF6817
:20200E00F34240F12DAC11FA492EAA31498A863E221C0A75D3F5DD37F1B7CD8C7516848E48
:20202E008AEE40C0126E1A64E6BF0F30CC8606942463F4F28F8A377F21BD29750F9D170DC4
:20204E00E635973666DA60ED32D194E8378554D60B8B53499A9AACA55B440D939E6E41361F
:20206E004C16C1641429CD529DBAB8990C76946BC23690C52281079CF3D3A697C493BF1189
:20208E00D96AA48E0F5D21FFE1B87C5EED69EBA8ABF7E811AFB63188488BF8789AD755A96A
:2020AE0003D437B0F43F2C863616F82C27BAFE0F2DFAE4AE1DCD194D6D1FEDB8BEFBBF6EF1
:2020CE002F30C6E6B6AF40BCEBFCDFEF7BFAC3419B4FDC33312F115C49E854CFFED7E9562A
:2020EE00F22031D66F26CC005388592BDED3F31239552278C9D60543C99B1052CDC2B67FAA
:20210E00DBF18F5F33B52603913D6D1E26AA44F0A1654CAF47180ABC871AAE3AB7B5560E0A
:20212E00A3FA5280049B626FFA034924A3A1FEE0A6D5CB2F7D4D2DF8E240C1FCCDB79CDEE5
:20214E0071F04EB0B7EBBDB019BC5DE9680C5398E0D285B979CF648222D6935B5B29FD64A0
:20216E00C6CBE6975A028FE86A98A5EC66205712E157E228C90DA0DEE74048CB38364475F7
:20218E00CAD7D2469FA249E97640FE31860A47222E2C10627250E9B35E90BDAADD213FACBF
:2021AE00F954245F467220BCEDC48CBFC404A8B2AD87D0F978622B73CEA57A54C82D8A90CA
:2021CE00CD422448037E05211C1C5A0116DB73944FCB6E3D8A35EAEB5F535CE4101ED80DE6
:2021EE00FA60D48F33A9D8DD53E12A5345D0842C8F59FDEBD80216389B7A159B9E436130DE
:20220E000B358AE7847E71A300ACCC288D8201CC4CDADE3A0AA76A9FBE18DA155E0DBD7513
:20222E004E11840EE8605857755C1F5231E352F828DF34F3C85128D7B68D805CE22CB6F0EF
:20224E00723C39BE85C7859AE94AE0F4FD5F5C5811016EFE036DE1899CD9D213AF16263874
:20226E00F8E1E014AC4E40960413197DB8229F4E62109614EE9EA72D3B2AA0162FAD74BE9A
:20228E005D718B9CF297C48E803F160A350F8D577F435512164E94A5F2A28584CBAAE47924
:2022AE005049CBF4C9AA57A3C5D42B4AF8F5BAC9FA38A380CC87D774DA03B85FB95B5BC4B3
:2022CE00F46501834DDE33AD0ADF163D2C06A73E885DEAD6719321CCDD2A1B68BD419032D5
:2022EE0000D651332805DB92C42D57E64286B7C80F6BF928697EB42B86D1A911BA79A32FF0
:20230E0099AF30428F7290C6367333A49D2E98209432F097615A0E9AE3466BAFC5174A6220
:20232E00003E6E4D51E759D77AD8B85F88017269AF453AC0E10A16117ABAEBBCA44ADB8F2E
:20234E009CAEFA2788FEE0F6F018FC02C59757A006FB13BD167E66DB0C316D548ED0CDDFA1
:20236E0025EA028DC9F35D53563A16A7440E18A8194AD9A00159F17189E675FA65228C73EA
:20238E00C27BAC15016551220D13F02CC757226310B387D1EE2F13D87705FDF68DF31491C2
:2023AE0044DAB6C1D7046C0EEA7E6BF11F7AE9FE59B0875B4F8409CB2DE68DEEEB6720034C
:2023CE007E5B62E509D4896E1948FC18F66CB2E1F2D667E2D8B60B93F7C5737115A90BC12A
:2023EE003D1B08564B23EB995ED6A969BFB270C57867F03773385BDFDB808C92689B2E9214
:20240E00D8482BD364891544429C7A8BA9502E301AEA5C206CEFD96736611B45B273BA4DD2
:20242E007B6F167D168458E4B39C7BCDB92A9CF37C8C36A4A8EFB1E46A6BDE40573E4BFD54
:20244E00A491FDC0F17D3826BDEB481FDEE5E407563DBC0E0746CAF7F17879689987499B3A
:20246E003A873842BD672554B9E0C55AD434B8E5C0903AF060B968C4A17B4EA777CC03DE25
:20248E004F8BCFA6ECB5377703ED2979453491CA813D943CB3E8380CA9452E963965F20972
:2024AE00AC2F10570C74B615FED6F0A953F5C593318EB254F9963EB9B23A659D1314BCD682
:2024CE007E2D7FCB697EA6D98F5A568D626F571DF0FC309644B4BB14879A7AAB20B4948DCE
:2024EE00419F58749054B35D347B98D187A1B3E706D38B2A2FE3D81C97CD5B40D3392AB6D5
:20250E00FA8E124072C51090782076DD2A774D220C6BDA0A493278177D7663DD732A2DD5CA
:20252E006CE21A81D4FCEE9704B2CEA2A96B7918BD491715C0B177E7ED3E41CDDC4E4A1DB9
:20254E00744A8FEA69D886739AB3F915E5B9C2E85614074C20537EC76B7701E0ABB372FD54
:20256E00B2DBCF94FEEEC065A8B57EBA990C9BA997FFFD92170551B25B7CD6144B4184BDFC
:20258E00E24B24B3044CC9265B191052D5E483809C86C853728C22065EEE07E8713E6BF6AA
:2025AE007D26894F5935D7D8804536588BC499C131B84951217D26859198D46F9989B9EA5C
:2025CE00522AC2D3F046EAAF19C61D2081C83D15E031E6FFA7BC0CD0FB84D3E2659EC3B770
:2025EE00798DE547960410699CEEA269D5A62D2D0D8E079B53ADBD0559768C90E017B1EE9E
:20260E000786E670EAC8C2EA73BE4F1298553975859861A513469A53F9B618536BAEB5AC41
:20262E000AFFB7AA91B4A1621CE4115C1A540ADB39FDBD394374DF4B611EF6F56C9DE93180
:20264E00838826C197B8F940DE674D60538D968003FC96D4F1D1E88CD8A830076163EC0202
:20266E00D7D815C242C9DD52F4A40A1C34C70263E9F0D8425DFE3249FEBCDD9A959FAE3E54
:20268E007D0D75B786B64923DC76646771BAEE3FFEAAC64CC6DCC812659D63C86C4E54DE0A
:2026AE00E9A398148BF6FDA8AE30AFB7065D8FBF7910198DDA7B9842529A24E793D405CF29
:2026CE0045C0BF271D24E3E87E88B7A5B55EA700481D33C8BE840DADCBC5BF5B1539BB6664
:2026EE00871A576783CF42D97D24F69611FE3BDD17BEE85EA24756FC318891FA1A8DCD1589
:20270E00557BCD2E153C222AEB0B39E1442C8EF6F4FE426AE6F1131D576E21ED6A58E75DC1
:20272E0023DBC5980B7EC75259E3D633D652CDABA68ABA91A530BE8A563ED27671E642D6C6
:20274E0077586C7272347813E21EEB5D960CB1A0806BC186D02D1D5E57804AFD711276E9A8
:20276E0002AC40111115D9FB4E065D41BE2A227CA5F14781FA8A7132A8C5E33F1652E2DD9F
:20278E00E953AD34507C9C4F3898BED0EA353E4E5ED2CC5CC23C9BED9C6AA97FCED4DF8C35
:2027AE005AA964E2DCF3B1D529961EDD45AB6E6559901CFFC02E82BA8100C890240E55D092
:2027CE00B0A64622815E1026C10C6007D611ABF0E1EACDB929D2B0216B3718517F0DE44288
:2027EE00F1218F7770129893F14EB4BD45F960A66C1BCB64D1146D18EA69286E4BDBA10A38
:20280E00FBD86EF5AF82EFDCBEA60E4D8669EF9FC61D29FBB285F10DFF54C0325BD84C60DC
:20282E007510E35A5C55C7E5CC509D85002C8D3A79928C5A20CC8E76540EFA195B272FFA39
:20284E00E02DDD63036B0D9EECF20C6CED0E6E8B55DC54737D026D2973376383D82499E8A0
:20286E00176300F0152188F132B406D2674C601159739D35AEC09E447872AC2E27E7D91D99
:20288E007EA59FEB507E5A48AB2B828196E7E109689E62A842558A4C05F6A35E4C96670DFE
:2028AE00EA96E8F33F807EF98DE717C1E606E126E706BC031BA66F75679CABD769D6482EAF
:2028CE00B2C64FD5E5898F69EA0FDFC58B9321C9DF1436218DE138749C2E4047B5296A390D
:2028EE00664F67087E8D9582EF72E09D5680664827150CC416160EDDF6806FAB6493501C0C
:20290E001DD7131C78373175D0C11DE5FC492DD04C78D903AA88AC58B666A8E098261F63A2
:20292E007EFA8E08F5B57C4490DA213F3F8F12E2F8552EA8E624D9FDF92FFB630AF7CE230A
:20294E006DF9F715718F6CD10F657E99EBDDCD24E1D9B8F0D5388225FCD26FFE8A7AC5EC70
:20296E007FB52B284B615E0F8B7DF288D16003DABD57A0DA41D81E27FF15E165CDD14A41AA
:20298E00E9A0A03DBAAAAC40938096B9665470EB1B2F2816D18ED098D44966F536A0381017
:2029AE005AEF4A4C49E0D8A8BA967CF430CD78AF02F6B7C71F03623CF61402B233E64F073A
:2029CE0069297B421564EDEA11864E888F35401E4555282DAE9CC3769A90A47AEF971EEE6F
:2029EE0062B8DBBDA6200C8F38F8D7B721EF9B64A7FF364A5FDD0F9101F8D634B7A738C985
:202A0E00948BDFBA1C41E9F6DF803101B92260B5CCB9FFF88E070A8B8297A3F32D376E6CA0
:202A2E0017FD6883A7E2E4BC249A5D1B12D8D74A8095D3957F783BB9A4D72D220C3EEFBCF8
:202A4E0004B7E961789894B48FE38B0AAF4D317FC7658E6D35DB7635B632005C90B65BF69B
:202A6E00F997AB2B2E459A3CBAADD0CF19484762292E48944BC20FCA5F4F7250EACAE33D2C
:202A8E00E0B746D68252A43A1CAF2DDE0E10F9F861AC5983765A457A6BE209BBC31A96E101
:202AAE0096D926F5414B9F94ED0CE519B29E3DCD13460955581EF52A0E78D33CC5572D55EF
:202ACE001E743237DBDC0FC1F626ED7BDB16E8C8A4846BFE18D5C3EB265C0ED07FF00CB387
:202AEE00865C5054CA3D38A52EF45AAEB28902A0E8E5455A408EA18506D42996CE75B7352F
:202B0E005B9DCF8D9F070938F6FC0842A6CED385A6C6C2300BC8331F805F3B6355F2954642
:202B2E0008BAD51AAFB0935EAB6E7DE3B41FACF1CCB5678D7F77DCEC7F65A5ED9E3D5C4776
:202B4E00074EAE2CB81C59505957BB1697C9B8D80B3429BB47692B48312F9874DB45E67121
:202B6E00ED81716F9EE2F3BBDAE421DE845A3B75D2A9A8CB60DC57D226985D121C06D16F9E
:202B8E00E4FEDF1C9CD34F250E77428F4A59644EDA4B0D9C864C74A6525934E950D9EBA77F
:202BAE0065ED37267BB0CBE1EEB9AA3FC748E92A02642FD61334439662A890F37B67506124
:202BCE00529549C897D8D3EB3D2A93718EC9A67B616C7FEFD694AF63620C43464BE298BDAF
:202BEE005FD1EEFA08711AE39E1CE263EFD0F5F73D23D071481F3AD744A8E02E89EA68F5AC
:202C0E00502C3F1F6612897BA279FC22888592DA03AAEA825054F95B46CE300909D9AE8F21
:202C2E00201D86E5C92C9A2B79B0D827950EEC95BCCAE8DD697514A5B2FBD226B3BF0FA52B
:202C4E001B3707FD40B78050BAA288198083BDA02DA59F06C5B5EA8AA93F48B4B9EB9298D5
:202C6E002916B1046D113B056D1777A38C742D9399060733E1DCE82F70824AE8B851BF7627
:202C8E005BE93075E06030A3722148F41D8EE0CCD437E13376B18CB1F08A972410574F98FE
:202CAE00C3A79E83DD45A0EF2E002D74206B031534572EAA6363ED20E8800E3549C12BDB67
:202CCE007C071FF8C0C55B17CEE2437D3D60F1F2F82DC205BADA39D70986192EE8CDD0C3B7
:202CEE0088C2475BAB85023FF8EAA4C9CBCF8C0AD76B86C73B20EDE703CA785AE65216E25D
:202D0E0085FFC063EFAECAE4951856D7CA13E629DD2B191BBA5ECADEB9DD976CF5320464C9
:202D2E00AF2C099420B92C40AC3F265EB8AF09EB32218C0406F8453FCC4E4F1D581C386502
:202D4E0039A3FCC2FEAF7BCAA58F58EF7F8AB967E1A40513BC266082DFE0224014A136BD0B
:202D6E0004A5FEB60F945059526919D64BC472EE7FB4184A6B6A5BCA82DD882E703DA3EEA1
:202D8E00E55EE01C87F31F951C77E60EAA16851F7F1C36D0F81C7FE1AD3B678F308BB16608
:202DAE000C6B7DC3BD19C729CDF5F8A721786574346E08C828BDEE4E1C62847610B90B33A3
:202DCE00800EEA78317A3925BC066EAD2A2E873AB95A8946CA5A54A7BBB4A97096CB266581
:202DEE008B59019186AC43D9FE9A6A250E92B9CCA92B3E4F7DC55AAAFA0638E35D47C0E9A6
:202E0E001374C526D7457897AA7EE808DE735476EF50C7ED660E64B08F77541C849BC66896
:202E2E00A1F28696573BB94C036FE9AC39220B4669591A123A0D0446615754C37A8154F6F8
:202E4E006112B000B4BD4710DEC6D854FC456FD5D051C88EFC72D8547C94C0A1F0B7B8CF74
:202E6E00A943C805DD4D7A09EDB17C012D2638E1A4FD7CFC71DD5A0007A56A7A4036C8B513
:202E8E00089F5FBC988BAD8023F1F93EEC573A69235032C0E328E604570720961D1F5424BF
:202EAE006CA2948E0C162587430B1E403F343C5DF28D4E0DE7206E72A7A989E60AAC9697EB
:202ECE0065735DF8391B4D14E6C04256198FC85457135B1CDC849142CE9FC0E06975916F01
:202EEE0015C9965F719A1D5183D61D938DBEC897B175897875D0C7AE00993B61523BD364EB
:202F0E004E39C9B2FBC3755827C8385C919F5559003C7B8A90A6A0E6E89F0811917B9E9BD3
:202F2E0007CD1F999A8ED8E280C84D6599EF226A15DBD0FD3B4EAF22BECA59416D6EA4400F
:202F4E0062B87225D07C5152AFC46F2923CFEFF6A0458702DDFC37BD367E1EE03A29CAE7E0
:202F6E00028B305A7B67891F08FF27BB830F8E1B14B4B1DBD26B30C374F1C8F6F5F2606E22
:202F8E00766122D1EF8F72879D113739397FD0EB22CD1038CE6B48150CFDFED176BC32E860
:202FAE00E8A0973AE0A4720892A3CF4C7C37725BAC1A53BDACDE207A7B9AE5130D03713222
:202FCE000843FC9DAFEE13D820CC2A4BF69A72F97C722F0E9592816F23B5D5A33752DD3FE4
:202FEE005F4FC803C941B92DE5494170066DD892D159C96A10B413131A3F7A8C45A29D6F05
:20300E00CAC53BB43F0E55681803CA0FF8A73DC7D01FBD97E80247AA58DB8C5A98B6C152EB
:20302E0028B1518C4F9E1DE71695DBF0EFB717513684836D03D5D01AF4532A3D6F7FA36646
:20304E00DD0474A5B50E328369242413078A9970F6960C129F742622947AD577AB01511323
:20306E00FC98083CA02E204073E71B9E43709B6107C867EC69FDDBD23E53823506A5A61B91
:20308E00E4D4650098B74C79F2578410340D90352772C382AB9A382A0F9B4ADD61D8DE8B16
:2030AE004BB19644A27F1130723E66CF58C891B65FAF45068B9129D295550F9A7AB168AA3E
:2030CE006FF7D020EC041D84F5CB236B86F11853359C388296E7F5BA3218179AA76A55179C
:2030EE00FE871920A72CB5D40F48B17DD394A6BA96F63270C806ACFB1CA6E3B89CC1978CDC
:20310E007643E3EDC44C1FABC74044BE02C3B061F1663244699E30C3C891E2B727106D6C96
:20312E00B2CDEE6CD5EA1B43E95D7602BB25C86C02D724A448A649ACDF59D3B4364EC5DE4F
:20314E00320C167274526B0C9D686FC586BAB8626683305C21E13166DD40A3FC4190E6AC9E
:20316E0088BE3C11DFA579E54363F382F7C807C90E28A3C371AADC66CACE5188D5366F3509
:20318E006EEF2092D03CEC38683FB7074AB5967DE654B9B3D5811E4BDE661C5F959F4A3D8C
:2031AE0072A37E2CE681ABFB421F91F98E961FDEC532282BAE61951DFBD00E876697C41BE2
:2031CE006E23D6884A23B7AEB5FABED732151236DB25AF7CFEFA12F7E565671E018395C277
:2031EE00FE97F210D1136EF3485C18EDA877965DB5F2AF75CA1AB58B8DD8E776C943DC563B
:20320E0085CA01973C0849384C823F0B1A4DBA1B1D8B0E498EF6858764831BA5D559B8ABD9
:20322E006653BFF20292EE02F4F0EFA704B5B65B6699FF12110EB8B4B4498D9AAD2BF1A323
:20324E006AA49A64520AAB163E32FE72950E67E2CE03E1B46E9BB1BDE0BF56EBE9753A0313
:20326E00DFDAEC3E3B17CA59EB808DA4B7583EA5B1D6A247DF5006B66E2F8A288245CBB26C
:20328E00391BA18FC502E937D9688E888A32B4C8DA7BC2AB4F7B89C1CC2460098165409F32
:2032AE00ABB4217FC0D90A63976BEF510C28A6BEECC91061A638B43085D1753289FD107135
:2032CE002727CBD5C60A191545D8775A40C68C766027419D6F7DACACF0D91321BC05BAD706
:2032EE00AB9A372CE7A10A678A789E1CCB1099D59EF2CAE425B6EF6E2826BAB6F76D583DED
:20330E009A482C95F8025FCCFA90817A5AACFDA9690A96F48745FD62FF7A1E0B24E58D3D09
:20332E00737CEC894D28972C97815BEE5EBAFD4F931B540A88AF6D0C682495759E23E61015
:20334E00EA2B14CDB8F8C871D4B8C5C3237B4DCDECE92C8C5F101AF48381C874C61C74C054
:20336E0016E46B051B06EA8AE8185F41677392FA8181EE0BE111610E73167331051C50132D
:20338E00DAE96E6147B094A224C3D4FC64532A6C02A590FC26C9D73032647172A07B534EFE
:2033AE00FD80FACFE7F540D8E2B821297F685AF9312B5C382DF5923C06F5306462529728C5
:2033CE001FD9879E93E2B090469E6727C265E49EF3142C9C1FC23CD27A3B5EF44C7AE05D2A
:2033EE003F8EAA37C082C215D3C034D70561A96B39CE468800FF1FE8067AE5C3E8795A34EE
:20340E003777F6AAE70148586FBD6553427C7106F241FEAF1AA86BFD7A115A6AD358F3FF39
:20342E007EBAD9F136ACD10FC5800BB3DDEC170B2911B45077E6E6BA15619844343184BB9B
:20344E0086E28CC9D8392C415EE3EE4E701F38012C19F73581266B2E96A078A1D44EF305C4
:20346E006F4D5A13FA962156D8A934036465E62D5F2439E7BF1E31513B0A5492154895E972
:20348E009F18E48D4A29760A02B7091619C70164F05B916314937DA8F8118CD489963660BD
:2034AE00E5F36C61888E3983E04CAC78838691930916DB0C830F0D2023C481331A10AEFDD5
:2034CE005BCD7470971FE273F93550D346D51CC5153B2C8AE7FDEB9F63FD8C819E738759A8
:2034EE001DA5C17674113052B69BEBF67C63BC480DA216F903B644B61D0242F5124ADD5356
:20350E00B9C87C89EECEF3DFDE372E46A3B44EA4A4591FAAED6CE44741454D5EDE22E2C397
:20352E0027D822BDAC826CD7E1BB6C5B48AE66A9B6D3674F27C6C9A1D2D94AD7055D4A892F
:20354E005C4AE54E9A6817CC22739216479E69DECCF3CF2B3E762665A8916A2ED27F0173A8
:20356E00CAF4C8CE3A67F0B26CD9A1D60C53E046A5EFA40BC8E21322573206088C1E63841B
:20358E00AE3931AC7F4B58FB351A3BCEF4F7FD7951CD24C269250EAD7EE8CC2E788E50720E
:2035AE00FD4DD2B38E067C22FA2AE573A0CF9676A98C419F50E96E1E16CD919D2264AB6881
:2035CE00E185FA0A0894C4418039DC4A343BAB941E6B1B8B3B4ED867E1A319FC77A1039DFD
:2035EE0011F2C6E3B88E5AD416E7EC1B9F9AADB3DEAECDE53E821CBB9AEDD2B805F062843F
:20360E0003FB76DE0734F3D91D0F9D6F84ADEB8D96B1940CBAAF14BED2DFD830957D1EA4B3
:20362E007E76DD258A8D7CCE2E03BF977B2248CD1201F3EFE78CA9A23FB83CAB782BAAA668
:20364E00D559D0647B2FFEFB9165DA49D3E2BA48822B425CE993899EF30E05C78332AB5616
:20366E00D969D1C999158650C3A3A7D731FCDDA45704B818DEC96852DDD073060752BDA8DA
:20368E0049796EC917B37134633A4F6673D03C40259971F0C3C1154F6E0662E0741FC55737
:2036AE00D1E0EED8924DA55F4FCA43D673D87ED487F7B55C08EC275A18AF697C82C8D8F50C
:2036CE00A0455A0F81FF0539F0723D0BF44585B61376F70BC9ECB7FDA0FB7A1C6D2483B1C8
:2036EE0000FC28F46BFECB88D2EFC9848B69EBC520F192B84D5E42B3D94480ADB2955B341B
:20370E00D0474233ED69ACC2FB6A725FD379A69760C977CCD675EFD2D20F5C5392F334F6D5
:20372E001CE9CE1A35BD33AC5705D42FCEAA23EBB8E385216F141037BC2ADA06B05219AA42
:20374E00BBBA037AF9306A170C483DD76D6D5A9E95549D68AF9A4D7B43AAC35C93C028D52A
:20376E00A60D7415ACE30E687FF4A45F35ED15281BBCDEAA6A19B84ABC2BC243CD8728A633
:20378E008697FE4CFEA5DDC5BF9788BBC7E2D2FAC45212B6C73E760B63E17FC1A9DCAF5EE7
:2037AE0061A44A83A356DC944DEA01B4C9E92BDFDCBE77C819C0878AC93A2BD80FC154DB50
:2037CE0099983CE81B4052061DBA947B5303CC565FE0DDA0CC4E274F6A60AF5CB3722ABD48
:2037EE005C2F331D4DED5F4FB8804E3CB978C524385B1AECDE29937D6F7578FF1C3BCD2FBE
:20380E00670E7529FC2AA54248BD3CB6DE46AC163936B668CD76F9C27D2AC4C31F5723D576
:20382E00F5161555242841CE8A9C9EF9FAF77953AE87885B42B68437C63F606FAD47B9F9EB
:20384E00412A58A33D4994A0AA4216899DE97CC50A294347CF1537DC51FC01006AB9BB37D1
:20386E007C1D1A7BAFE46A173DF4E52DE30D97163D65E3EBBD42E392EE3D4F72FE9F0BFEA2
:20388E00C6B1AF8B0478A1929387E6CAEBB43D137829C7E50B5440D6B6F92160CE030E47E9
:2038AE0030095011707CA3207E073B8082449AE703649AEC9D9AA816A9AE1E09B6932FF260
:2038CE00AABBAB29623D835F497CA9F1FE4CA050A55032E4A9494801D5650AC8856B0E7DBA
:2038EE005B7C126E35B85368CCCBC4F7C0F38BDCBFB348FE4561EB171BF18830CBB5197022
:20390E006D6D8968FE9BEF3414724DDAE58940C6C6081193CE8D55FF0EA088EF7C17FB49D4
:20392E00E813259413B49BB161A181F4F7A3D622E622528614158E269EEAE7C5CA187F1146
:20394E004B56CC27E53E105A788631EC95B666123FEB28080DB8C5CD96CEDFD6235CDD280C
:20396E0062E11AF404ECB57FAFC5F80009145DAF0084427387F6E4C270DFD210E5832CD13D
:20398E000BE90987D64FA74F886D140D9748AE6097CE0B13EC0C3CB6828E8690CA3F5BF38D
:2039AE001600656BBF02E57FD6F6F8372F271798F280E8378D989E02C5824AD62459B625D9
:2039CE00360F6D5460FF98B776D89FEF4244FB4F855463E22C3312C03EEDDF148AF555A494
:2039EE00151198694BAADB3AF65B02E4F8D96207B3485A41BA686DA9C93F4485A9388C27E4
:203A0E008349A887F49343855F6FFBF1C04F0276F8C6CF618A35616BD23E61C528315E1D8A
:203A2E00086D4A685CD6F38C07D71F0200CC3290238BC6969B4009EECA38B02D95154E2D33
:203A4E00BCBF43362600F95187A72855AEB292756EC8D45C37692267B4EEF813D536B05893
:203A6E00A576CE68512550E1A075EB8F58B478450E41A6507C298312F2AFE7E8CCC587439E
:203A8E000D4A639409BAEE79355A583E8C035540BA2460CAB7BD5497E8DBE944481AC98F46
:203AAE00E1E8537186FC5A53C55123247410B015E877316F9F5E49929EA2FADD25FAAAF9E6
:203ACE00F066FB901665E826B24E6CF5E7DE2F324494BF7D13DCC58B3A0E0B0BA2E04A7DED
:203AEE0038C8644E16AEF1ED6C3D336114FC332CD603F4D94F8EA16682925FA201099B3D37
:203B0E00565FA797232F32B73A2144C058A41DB20C661262972A4602CF399EB8611F0DAABB
:203B2E004699A83039F23A6E79EDDFBA28A0903B4874C35DA6EDF21E68B7CFB96D8E04C670
:203B4E00494AD7F16235ED5CEB4884B110500208B52144514CA87875800550BF4E3C0AFBDB
:203B6E0074534221EB3990EACE2CAF200F7C74FE709ED8F270F85DF866D859D4D18AD8680E
:203B8E00243378ABAAD3317A45028F92BC60EC8B70BEA32B08928ED44399F0DD25A0DE0D29
:203BAE00F9A77D37680449F55874C91D3683F1A22171A4BBFF96CA0196B538ACF873657239
:203BCE006D875802364815F4040242C83C8B27115E14ADBB63FF2B497EF671039CA611B94F
:203BEE00EDB98CCF2E3BDF04A93929AC933605B5415FD3204F5AE04E7A54B8BAB8999F098D
:203C0E00C460C81B125EB74A1EAB4E1EC031399E143EAA978F4441F6C7FAB9A09152BEE8E1
:203C2E001CDFFFBD90814A5E6A328E0E1956E51BAACA0182B03F204A088999EFDA23ADD17B
:203C4E0056B4F8CF1BF486759FE8A72F228707A4DE398979FA0166AD41890BAABECE79B06F
:203C6E001B76A87F8CEACFA2E0593C91B7FBF6AF59F8F224A316595D8B7008276C777CAC2F
:203C8E00B5A3724CF6D4C97C048303F8921D68B89EE062403B585F6C9164B01FB103B0C139
:203CAE00839B8DBAF2F2D197F2D7380D45CAD68962D7632710CD5E453100E49D93EBD25430
:1F3CCE00434835353920746573740D0A00726E646174615B25645D203D2025640D0A00DA
:20024A00AF82AE83ADF0FC900610EFF0EEA3F0EDA3F0ECA3F0900614E4F0A3F0A3F0A3F05D
:20026A0090060CE0FCA3E0FDA3E0FEA3E0FF7B20C003900610E0F8A3E0F9A3E0FAA3E0FB20
:20028A00900618235401F0E828F8E933F9EA33FAEB33FB900610E8F0E9A3F0EAA3F0EBA3EC
:2002AA00F0900614E0F8A3E0F9A3E0FAA3E0FBE828F8E933F9EA33FAEB33FB900614E8F07C
:2002CA00E9A3F0EAA3F0EBA3F0D003900618E06008900614E043E001F0900614E0F515A3FF
:2002EA00E0F516A3E0F517A3E0F518C3E5159CE5169DE5179EE5189F401F900614E515C3FD
:20030A009CF0E5169DA3F0E5179EA3F0E5189FA3F0900610E043E001F01BEB600302027A3F
:14032A00900610E0FCA3E0FDA3E0FEA3E08C828D838EF022FB
:06003700E478FFF6D8FD9D
:200015007900E94400601B7A00903CF8785275A006E493F2A308B8000205A0D9F4DAF27506
:02003500A0FF2A
:20003D007800E84400600A790075A006E4F309D8FC7852E84400600C7901900600E4F0A364
:04005D00D8FCD9FAF8
:02000600E473A1
:20033E00C0148581147E008E83120108D01422AFF0AE83E58290061AF0EEA3F0EFA3F09097
:20035E00061AE0FDA3E0FEA3E0FF900619E0FC90062EE4F0A3F0A3F0900631EDF0EEA3F011
:20037E00EFA3F0900634ECF090033E020495C014E581F51424FBFF90062EE4F0A3F0A3F0AC
:20039E00E51424FBF8900631E6F008E6A3F008E6A3F0900634EFF090033E120495D0142265
:2003BE00E58290062AF0E0FF900620E0C0E0A3E0C0E0A3E0C0E01203D9800D90061EE0C0DE
:2003DE00E0A3E0C0E08F8222158115811581900628E02401F0A3E03400F022E58290062B63
:2003FE00F0E02430FF24C6500D74072FFF90061DE060034307208F820203BEE58290062C6F
:20041E00F0E0FFC4540FF582C0071203F9D00753070F8F820203F9E58290062DF09006235A
:20043E00E0FCA3E0FDA3E0FEA3E0FF900627E0FB75152090062DE0F98B00E828F8EF235468
:20045E000148FBEC2CFCED33FDEE33FEEF33FFC3EB994007EBC399FB430401E51514FA8A1F
:20047E001570D5900623ECF0EDA3F0EEA3F0EFA3F0900627EBF022AF83E582900635F0EFEF
:20049E00A3F0900635E0FEA3E0FF90061EEEF0EFA3F090062EE0FDA3E0FEA3E0FF90062012
:2004BE00EDF0EEA3F0EFA3F0900628E4F0A3F0900631E0FDA3E0FEA3E0FF8D828E838FF0D3
:2004DE00120DCEFC90063174012DF0E43EA3F0EFA3F0EC7003020D8ABC25028003020D8296
:2004FE00900637E4F0900638F0900639F090063AF090063BF090063CF090063DF090063EE6
:20051E00F0900640F0900641F0A3F090064314F0A3F0900631E0FDA3E0FEA3E0FF8D828EF9
:20053E00838FF0120DCEFBA3AD82AE83900631EDF0EEA3F0EFA3F0900647EBF0BB25088BDE
:20055E00821203BE0204CDBB3000500302062EEB24C6500302062E900643E0F50AA3E0F553
:20057E000B74FFB50A63B50B60C005C006C007900641E0FAA3E0FF900650EAF0EFA3F09046
:20059E00000AC005C003120DAEAE82AF83D003D0058B027D00EA2EFEED3FFFEE24D0FEEFBA
:2005BE0034FFFF900641EEF0EFA3F0D007D006D005900641E0F5F0A3E045F0600302053B39
:2005DE009006387401F002053BC005C006C007900650E50AF0E50BA3F090000AC006C005C9
:2005FE00C003120DAEAA82AF83D003D005D0067E00EB2AFAEE3FFFEA24D0FAEF34FFFF902F
:20061E000643EAF0EFA3F0D007D006D00502053B900647E0FBBB2E2FC005C006C00790069B
:20063E0043E0FAA3E0FFBAFF05BFFF028009D007D006D00502053BD007D006D005900643D7
:20065E00E4F0A3F002053BBB61004014EB2485400F90064774DF5BF090061D7401F0800568
:20067E0090061DE4F0900647E0FBBB20028075BB2B028067BB2D028059BB4202806FBB43CD
:20069E0002807CBB4403020925BB460302094BBB480302053BBB4903020925BB4A03020524
:2006BE003BBB4C028050BB4F03020933BB5003020893BB53028077BB540302053BBB5503A4
:2006DE0002093BBB5803020943BB5A0302053B0209539006377401F002053B9006397401E2
:2006FE00F002053B90063A7401F002053B90063C7401F002053B90063D7401F002053B90B0
:20071E00063CE0600E900634E014F9F0900647E7F0800F900634E024FEFFF08F0190064719
:20073E00E7F0900647E0F5821203BE020962900634E024FDFFF08F0187050987060987074D
:20075E001919900623EDF0EEA3F0EFA3F08D828E838FF0120D9685820A85830B900643E07F
:20077E00FAA3E0FDBAFF0DBDFF0A900643E50AF0E50BA3F0900637E0704B900641E0FAA35E
:20079E00E0FDC3E50A9AE50B9D503A900641EAC3950AF0ED950BA3F0900641E0FAA3E0FD97
:2007BE008A068D071ABAFF011DEE4F6010758220C005C0021203BED002D00580E390064107
:2007DE00EAF0EDA3F0900643E0F50DA3E0F50E900623E0FAA3E0FDA3E0FF8A828D838FF030
:2007FE00120DCEF50C603CC3E4950D7480850EF063F08095F0502C150D74FFB50D02150E41
:20081E00850C821203BE900623E0FAA3E0FDA3E0FF0ABA00010D900623EAF0EDA3F0EFA3C8
:20083E00F080AC900637E07003020962900641E0FEA3E0FFC3E50A9EE50B9F40030209622B
:20085E00900641EEC3950AF0EF950BA3F0900641E0FEA3E0FF8E028F051EBEFF011FEA4DB4
:20087E00700302095A758220C007C0061203BED006D00780E0900634E024FDFDF08D018731
:20089E000F0987100987111919900623E50FF0E510A3F0E511A3F0900625E0FDBD800040F5
:2008BE00089006477443F08020BD600040089006477450F08013BD40004008900647744986
:2008DE00F080069006477458F0900647E0FDF582C0051203BE75823A1203BE7582301203E2
:2008FE00BE7582781203BED005BD4902800EBD50028009900624E0F582120419900623E0FE
:20091E00F582120419803D90063B7401F0900640740AF0802F9006407408F080279006406E
:20093E00740AF0801F9006407410F0801790063E7401F0800F8B821203BE8008900641EEB6
:20095E00F0EFA3F090063EE06071900634E024FCFFF08F01870309870509870609870719D4
:20097E001919900623EBF0EDA3F0EEA3F0EFA3F090062374EDF0743CA3F07480A3F09006A6
:20099E0023E0F50FA3E0F510A3E0F5117401250FFAE43510FBAF11900623EAF0EBA3F0EF9A
:2009BE00A3F0850F828510838511F0120DCEFF70030204CD8F821203BE80C3900640E07053
:2009DE00030204CD90063CE06047900634E014F9F087077E007D007B00900623EFF0EEA3F6
:2009FE00F0EDA3F0EBA3F090063BE06003020AA5900623E0FBA3E0A3E0A3E07D007E007F8F
:200A1E0000900623EBF0EDA3F0EEA3F0EFA3F0807690063DE06028900634E024FCFFF08F28
:200A3E00018703098705098706098707191919900623EBF0EDA3F0EEA3F0EFA3F080489091
:200A5E000634E024FEFFF08F01870609870719EF3395E0FDFB900623EEF0EFA3F0EDA3F058
:200A7E00EBA3F090063BE0701E900623E0FBA3E0FDA3E0A3E07E007F00900623EBF0EDA360
:200A9E00F0EEA3F0EFA3F090063BE06041900623E0FBA3E0FDA3E0FEA3E0FF30E72B900604
:200ABE0023E0FBA3E0FDA3E0FEA3E0FFC3E49BFBE49DFDE49EFEE49FFF900623EBF0EDA3B6
:200ADE00F0EEA3F0EFA3F0800590063BE4F090063F7401F0900640E0F50D75124D75130687
:200AFE00E4F50AF50B900627E4F0850D8212043590063FE07026900627E0C4F50F8512823C
:200B1E00851383E0FFE50F4207851282851383EFF0151274FFB512021513800C900627E0B9
:200B3E00FF851282851383F0050AE4B50A02050B90063FE0B40100E433F0900623E0FAA309
:200B5E00E0FBA3E0FEA3E0FFEA4B4E4F709790064EE512F0E513A3F0900645E50AF0E50BC0
:200B7E00A3F0900641E0F5F0A3E045F070099006417401F0E4A3F0900638E0FFE070479070
:200B9E000637E07041850A12850B13900641E0FAA3E0FBC007AF120F8F067F00C3EE9AEF11
:200BBE009BD0075019758220C007C003C0021203BED002D003D0071ABAFF011B80D59006B0
:200BDE0041EAF0EBA3F090063BE0602075822DC0071203BED007900641E024FFFDA3E0340A
:200BFE00FFFE900641EDF0EEA3F08056900645E0F5F0A3E045F0604A900639E060207582A7
:200C1E002BC0071203BED007900641E024FFFDA3E034FFFE900641EDF0EEA3F08024900620
:200C3E003AE0601E758220C0071203BED007900641E024FFFDA3E034FFFE900641EDF0EE49
:200C5E00A3F0900637E07048900645E0F512A3E0F513900641E0FAA3E0FBC0078A068B0719
:200C7E001ABAFF011BC3E5129EE5139FD0075053EF60067D307E0080047D207E008D82C010
:200C9E0007C003C0021203BED002D003D00780CA900641E0FEA3E0FF900645E0F512A3E095
:200CBE00F513C3E5129EE5139F500F900641EEC39512F0EF9513A3F08011900641E4F0A398
:200CDE00F08008900641EAF0EBA3F090064EE0FEA3E0FF900645E0F512A3E0F513AA12AD55
:200CFE0013151274FFB512021513EA4D604590063FE0B40100E433F090063FE070140EBEE6
:200D1E0000010F8E828F83E0C4540FFD900627F0800E8E828F83E0FD53050F900627EDF044
:200D3E00900627E0F582C007C0061203F9D006D00780AA900637E070030204CD900641E065
:200D5E00FEA3E0FF8E038F051EBEFF011FEB4D70030204CD758220C007C0061203BED0060A
:180D7E00D00780E08C821203BE0204CD900628E0FEA3E08E82F58322A9
:0B3CED003C4E4F20464C4F41543E001F
:180D9600AA82AB83120DCE6003A380F8C3E5829AF582E5839BF58322A8
:200DAE00AA83AB828BF0900650E0A4F8A9F08AF0E0A429F98BF0A3E0A429F58388822222A4
:0D000800758118120DEAE582600302000305
:1C0DCE0020F71430F6148883A88220F507E6A88375830022E280F7E49322E02234
:040DEA0075820022EC
:00000001FF
